{
  "contractName": "ColdChain",
  "abi": [
    {
      "anonymous": false,
      "inputs": [
        {
          "indexed": false,
          "internalType": "address",
          "name": "entityId",
          "type": "address"
        },
        {
          "indexed": false,
          "internalType": "enum ColdChain.Mode",
          "name": "entityMode",
          "type": "uint8"
        }
      ],
      "name": "AddEntity",
      "type": "event"
    },
    {
      "anonymous": false,
      "inputs": [
        {
          "indexed": false,
          "internalType": "uint256",
          "name": "vaccineBatchId",
          "type": "uint256"
        },
        {
          "indexed": true,
          "internalType": "address",
          "name": "manufacturer",
          "type": "address"
        }
      ],
      "name": "AddVaccineBatch",
      "type": "event"
    },
    {
      "anonymous": false,
      "inputs": [
        {
          "indexed": true,
          "internalType": "address",
          "name": "issuer",
          "type": "address"
        },
        {
          "indexed": true,
          "internalType": "address",
          "name": "prover",
          "type": "address"
        },
        {
          "indexed": false,
          "internalType": "uint256",
          "name": "certificateId",
          "type": "uint256"
        }
      ],
      "name": "IssueCertificate",
      "type": "event"
    },
    {
      "inputs": [],
      "name": "MAX_CERTIFICATIONS",
      "outputs": [
        {
          "internalType": "uint256",
          "name": "",
          "type": "uint256"
        }
      ],
      "stateMutability": "view",
      "type": "function"
    },
    {
      "inputs": [
        {
          "internalType": "uint256",
          "name": "",
          "type": "uint256"
        }
      ],
      "name": "certificateIds",
      "outputs": [
        {
          "internalType": "uint256",
          "name": "",
          "type": "uint256"
        }
      ],
      "stateMutability": "view",
      "type": "function"
    },
    {
      "inputs": [
        {
          "internalType": "uint256",
          "name": "",
          "type": "uint256"
        }
      ],
      "name": "certificates",
      "outputs": [
        {
          "internalType": "uint256",
          "name": "id",
          "type": "uint256"
        },
        {
          "components": [
            {
              "internalType": "address",
              "name": "id",
              "type": "address"
            },
            {
              "internalType": "enum ColdChain.Mode",
              "name": "mode",
              "type": "uint8"
            },
            {
              "internalType": "uint256[]",
              "name": "certificateIds",
              "type": "uint256[]"
            }
          ],
          "internalType": "struct ColdChain.Entity",
          "name": "issuer",
          "type": "tuple"
        },
        {
          "components": [
            {
              "internalType": "address",
              "name": "id",
              "type": "address"
            },
            {
              "internalType": "enum ColdChain.Mode",
              "name": "mode",
              "type": "uint8"
            },
            {
              "internalType": "uint256[]",
              "name": "certificateIds",
              "type": "uint256[]"
            }
          ],
          "internalType": "struct ColdChain.Entity",
          "name": "prover",
          "type": "tuple"
        },
        {
          "internalType": "bytes",
          "name": "signature",
          "type": "bytes"
        },
        {
          "internalType": "enum ColdChain.Status",
          "name": "status",
          "type": "uint8"
        }
      ],
      "stateMutability": "view",
      "type": "function"
    },
    {
      "inputs": [
        {
          "internalType": "address",
          "name": "",
          "type": "address"
        }
      ],
      "name": "entities",
      "outputs": [
        {
          "internalType": "address",
          "name": "id",
          "type": "address"
        },
        {
          "internalType": "enum ColdChain.Mode",
          "name": "mode",
          "type": "uint8"
        }
      ],
      "stateMutability": "view",
      "type": "function"
    },
    {
      "inputs": [
        {
          "internalType": "uint256",
          "name": "",
          "type": "uint256"
        }
      ],
      "name": "vaccineBatchIds",
      "outputs": [
        {
          "internalType": "uint256",
          "name": "",
          "type": "uint256"
        }
      ],
      "stateMutability": "view",
      "type": "function"
    },
    {
      "inputs": [
        {
          "internalType": "uint256",
          "name": "",
          "type": "uint256"
        }
      ],
      "name": "vaccinebatches",
      "outputs": [
        {
          "internalType": "uint256",
          "name": "id",
          "type": "uint256"
        },
        {
          "internalType": "string",
          "name": "brand",
          "type": "string"
        },
        {
          "internalType": "address",
          "name": "manufacturer",
          "type": "address"
        }
      ],
      "stateMutability": "view",
      "type": "function"
    },
    {
      "inputs": [
        {
          "internalType": "address",
          "name": "_id",
          "type": "address"
        },
        {
          "internalType": "string",
          "name": "_mode",
          "type": "string"
        }
      ],
      "name": "addEntity",
      "outputs": [],
      "stateMutability": "nonpayable",
      "type": "function"
    },
    {
      "inputs": [
        {
          "internalType": "string",
          "name": "brand",
          "type": "string"
        },
        {
          "internalType": "address",
          "name": "manufacturer",
          "type": "address"
        }
      ],
      "name": "addVaccineBatch",
      "outputs": [
        {
          "internalType": "uint256",
          "name": "",
          "type": "uint256"
        }
      ],
      "stateMutability": "nonpayable",
      "type": "function"
    },
    {
      "inputs": [
        {
          "internalType": "address",
          "name": "_issuer",
          "type": "address"
        },
        {
          "internalType": "address",
          "name": "_prover",
          "type": "address"
        },
        {
          "internalType": "string",
          "name": "_status",
          "type": "string"
        },
        {
          "internalType": "uint256",
          "name": "vaccineBatchId",
          "type": "uint256"
        },
        {
          "internalType": "bytes",
          "name": "signature",
          "type": "bytes"
        }
      ],
      "name": "issueCertificate",
      "outputs": [
        {
          "internalType": "uint256",
          "name": "",
          "type": "uint256"
        }
      ],
      "stateMutability": "nonpayable",
      "type": "function"
    },
    {
      "inputs": [
        {
          "internalType": "bytes32",
          "name": "message",
          "type": "bytes32"
        },
        {
          "internalType": "uint256",
          "name": "id",
          "type": "uint256"
        },
        {
          "internalType": "address",
          "name": "issuer",
          "type": "address"
        }
      ],
      "name": "isMatchingSignature",
      "outputs": [
        {
          "internalType": "bool",
          "name": "",
          "type": "bool"
        }
      ],
      "stateMutability": "view",
      "type": "function"
    }
  ],
  "bytecode": "0x608060405234801561001057600080fd5b506127ba806100206000396000f3fe608060405234801561001057600080fd5b506004361061009e5760003560e01c8063663b3e2211610066578063663b3e22146101845780637aefaf39146101b8578063b5bad46d146101e8578063c8d8184b14610204578063fc79b0a9146102345761009e565b80630f9c774d146100a35780631d8ee48a146100d35780631f5d5d271461010457806345194c07146101365780634851a01d14610166575b600080fd5b6100bd60048036038101906100b891906118d9565b610264565b6040516100ca9190611915565b60405180910390f35b6100ed60048036038101906100e8919061198e565b610288565b6040516100fb929190611a41565b60405180910390f35b61011e600480360381019061011991906118d9565b6102d9565b60405161012d93929190611b03565b60405180910390f35b610150600480360381019061014b9190611b77565b6103ab565b60405161015d9190611be5565b60405180910390f35b61016e610733565b60405161017b9190611915565b60405180910390f35b61019e600480360381019061019991906118d9565b610738565b6040516101af959493929190611dc9565b60405180910390f35b6101d260048036038101906101cd91906118d9565b6109e9565b6040516101df9190611915565b60405180910390f35b61020260048036038101906101fd9190611f66565b610a0d565b005b61021e60048036038101906102199190612063565b610bce565b60405161022b9190611915565b60405180910390f35b61024e60048036038101906102499190612116565b61117c565b60405161025b9190611915565b60405180910390f35b6000818154811061027457600080fd5b906000526020600020016000915090505481565b60046020528060005260406000206000915090508060000160009054906101000a900473ffffffffffffffffffffffffffffffffffffffff16908060000160149054906101000a900460ff16905082565b6002602052806000526040600020600091509050806000015490806001018054610302906121a1565b80601f016020809104026020016040519081016040528092919081815260200182805461032e906121a1565b801561037b5780601f106103505761010080835404028352916020019161037b565b820191906000526020600020905b81548152906001019060200180831161035e57829003601f168201915b5050505050908060020160009054906101000a900473ffffffffffffffffffffffffffffffffffffffff16905083565b600080600360008581526020019081526020016000206040518060a001604052908160008201548152602001600182016040518060600160405290816000820160009054906101000a900473ffffffffffffffffffffffffffffffffffffffff1673ffffffffffffffffffffffffffffffffffffffff1673ffffffffffffffffffffffffffffffffffffffff1681526020016000820160149054906101000a900460ff166002811115610461576104606119ca565b5b6002811115610473576104726119ca565b5b8152602001600182018054806020026020016040519081016040528092919081815260200182805480156104c657602002820191906000526020600020905b8154815260200190600101908083116104b2575b5050505050815250508152602001600382016040518060600160405290816000820160009054906101000a900473ffffffffffffffffffffffffffffffffffffffff1673ffffffffffffffffffffffffffffffffffffffff1673ffffffffffffffffffffffffffffffffffffffff1681526020016000820160149054906101000a900460ff16600281111561055e5761055d6119ca565b5b60028111156105705761056f6119ca565b5b8152602001600182018054806020026020016040519081016040528092919081815260200182805480156105c357602002820191906000526020600020905b8154815260200190600101908083116105af575b50505050508152505081526020016005820180546105e0906121a1565b80601f016020809104026020016040519081016040528092919081815260200182805461060c906121a1565b80156106595780601f1061062e57610100808354040283529160200191610659565b820191906000526020600020905b81548152906001019060200180831161063c57829003601f168201915b505050505081526020016006820160009054906101000a900460ff166004811115610687576106866119ca565b5b6004811115610699576106986119ca565b5b8152505090508273ffffffffffffffffffffffffffffffffffffffff1681602001516000015173ffffffffffffffffffffffffffffffffffffffff16146106df57600080fd5b60006106ef86836060015161133d565b905081602001516000015173ffffffffffffffffffffffffffffffffffffffff168173ffffffffffffffffffffffffffffffffffffffff1614925050509392505050565b600281565b6003602052806000526040600020600091509050806000015490806001016040518060600160405290816000820160009054906101000a900473ffffffffffffffffffffffffffffffffffffffff1673ffffffffffffffffffffffffffffffffffffffff1673ffffffffffffffffffffffffffffffffffffffff1681526020016000820160149054906101000a900460ff1660028111156107dc576107db6119ca565b5b60028111156107ee576107ed6119ca565b5b81526020016001820180548060200260200160405190810160405280929190818152602001828054801561084157602002820191906000526020600020905b81548152602001906001019080831161082d575b50505050508152505090806003016040518060600160405290816000820160009054906101000a900473ffffffffffffffffffffffffffffffffffffffff1673ffffffffffffffffffffffffffffffffffffffff1673ffffffffffffffffffffffffffffffffffffffff1681526020016000820160149054906101000a900460ff1660028111156108d5576108d46119ca565b5b60028111156108e7576108e66119ca565b5b81526020016001820180548060200260200160405190810160405280929190818152602001828054801561093a57602002820191906000526020600020905b815481526020019060010190808311610926575b50505050508152505090806005018054610953906121a1565b80601f016020809104026020016040519081016040528092919081815260200182805461097f906121a1565b80156109cc5780601f106109a1576101008083540402835291602001916109cc565b820191906000526020600020905b8154815290600101906020018083116109af57829003601f168201915b5050505050908060060160009054906101000a900460ff16905085565b600181815481106109f957600080fd5b906000526020600020016000915090505481565b6000610a1882611415565b90506000600267ffffffffffffffff811115610a3757610a36611e3b565b5b604051908082528060200260200182016040528015610a655781602001602082028036833780820191505090505b509050600060405180606001604052808673ffffffffffffffffffffffffffffffffffffffff168152602001846002811115610aa457610aa36119ca565b5b815260200183815250905080600460008773ffffffffffffffffffffffffffffffffffffffff1673ffffffffffffffffffffffffffffffffffffffff16815260200190815260200160002060008201518160000160006101000a81548173ffffffffffffffffffffffffffffffffffffffff021916908373ffffffffffffffffffffffffffffffffffffffff16021790555060208201518160000160146101000a81548160ff02191690836002811115610b6157610b606119ca565b5b02179055506040820151816001019080519060200190610b82929190611719565b509050507fc5479cebce58ee1a06da2a7a556312e0a6153f19a03c522e9a460aa994add4d581600001518260200151604051610bbf929190611a41565b60405180910390a15050505050565b600080600460008873ffffffffffffffffffffffffffffffffffffffff1673ffffffffffffffffffffffffffffffffffffffff1681526020019081526020016000206040518060600160405290816000820160009054906101000a900473ffffffffffffffffffffffffffffffffffffffff1673ffffffffffffffffffffffffffffffffffffffff1673ffffffffffffffffffffffffffffffffffffffff1681526020016000820160149054906101000a900460ff166002811115610c9657610c956119ca565b5b6002811115610ca857610ca76119ca565b5b815260200160018201805480602002602001604051908101604052809291908181526020018280548015610cfb57602002820191906000526020600020905b815481526020019060010190808311610ce7575b505050505081525050905060006002811115610d1a57610d196119ca565b5b81602001516002811115610d3157610d306119ca565b5b14610d3b57600080fd5b6000600460008873ffffffffffffffffffffffffffffffffffffffff1673ffffffffffffffffffffffffffffffffffffffff1681526020019081526020016000206040518060600160405290816000820160009054906101000a900473ffffffffffffffffffffffffffffffffffffffff1673ffffffffffffffffffffffffffffffffffffffff1673ffffffffffffffffffffffffffffffffffffffff1681526020016000820160149054906101000a900460ff166002811115610e0257610e016119ca565b5b6002811115610e1457610e136119ca565b5b815260200160018201805480602002602001604051908101604052809291908181526020018280548015610e6757602002820191906000526020600020905b815481526020019060010190808311610e53575b505050505081525050905060016002811115610e8657610e856119ca565b5b81602001516002811115610e9d57610e9c6119ca565b5b14610ea757600080fd5b6000610eb28761153b565b905060008080549050905060006040518060a00160405280838152602001868152602001858152602001888152602001846004811115610ef557610ef46119ca565b5b815250905060008080549050908060018154018082558091505060019003906000526020600020016000909190919091505580600360006001600080549050610f3e9190612202565b81526020019081526020016000206000820151816000015560208201518160010160008201518160000160006101000a81548173ffffffffffffffffffffffffffffffffffffffff021916908373ffffffffffffffffffffffffffffffffffffffff16021790555060208201518160000160146101000a81548160ff02191690836002811115610fd157610fd06119ca565b5b02179055506040820151816001019080519060200190610ff2929190611719565b50505060408201518160030160008201518160000160006101000a81548173ffffffffffffffffffffffffffffffffffffffff021916908373ffffffffffffffffffffffffffffffffffffffff16021790555060208201518160000160146101000a81548160ff021916908360028111156110705761106f6119ca565b5b02179055506040820151816001019080519060200190611091929190611719565b50505060608201518160050190805190602001906110b0929190611766565b5060808201518160060160006101000a81548160ff021916908360048111156110dc576110db6119ca565b5b02179055509050508973ffffffffffffffffffffffffffffffffffffffff168b73ffffffffffffffffffffffffffffffffffffffff167fc9e3e855764ebb21ed83dcdf8ed5e1398c752d6446308e092c28a84a77a199bd60016000805490506111459190612202565b6040516111529190611915565b60405180910390a3600160008054905061116c9190612202565b9550505050505095945050505050565b600080600267ffffffffffffffff81111561119a57611199611e3b565b5b6040519080825280602002602001820160405280156111c85781602001602082028036833780820191505090505b50905060006001805490509050600060405180608001604052808381526020018781526020018673ffffffffffffffffffffffffffffffffffffffff168152602001848152509050806002600084815260200190815260200160002060008201518160000155602082015181600101908051906020019061124a9291906117ec565b5060408201518160020160006101000a81548173ffffffffffffffffffffffffffffffffffffffff021916908373ffffffffffffffffffffffffffffffffffffffff16021790555060608201518160030190805190602001906112ae929190611719565b509050506001829080600181540180825580915050600190039060005260206000200160009091909190915055806040015173ffffffffffffffffffffffffffffffffffffffff167fe85391abb5e51659c581dd95107048251657ee66755655cc08c9c0ec3a0a913982600001516040516113299190611915565b60405180910390a281935050505092915050565b60008060008061134c856116e7565b92509250925060006040518060400160405280601c81526020017f19457468657265756d205369676e6564204d6573736167653a0a3332000000008152509050600081886040516020016113a1929190612293565b604051602081830303815290604052805190602001209050600181868686604051600081526020016040526040516113dc94939291906122e6565b6020604051602081039080840390855afa1580156113fe573d6000803e3d6000fd5b505050602060405103519550505050505092915050565b600080826040516020016114299190612367565b6040516020818303038152906040528051906020012090506000604051602001611452906123ca565b604051602081830303815290604052805190602001209050600060405160200161147b9061242b565b60405160208183030381529060405280519060200120905060006040516020016114a49061248c565b604051602081830303815290604052805190602001209050828414156114d1576000945050505050611536565b818414156114e6576001945050505050611536565b808414156114fb576002945050505050611536565b6040517f08c379a000000000000000000000000000000000000000000000000000000000815260040161152d906124ed565b60405180910390fd5b919050565b6000808260405160200161154f9190612367565b604051602081830303815290604052805190602001209050600060405160200161157890612559565b60405160208183030381529060405280519060200120905060006040516020016115a1906125ba565b60405160208183030381529060405280519060200120905060006040516020016115ca9061261b565b60405160208183030381529060405280519060200120905060006040516020016115f39061267c565b604051602081830303815290604052805190602001209050600060405160200161161c906126dd565b6040516020818303038152906040528051906020012090508486141561164b57600096505050505050506116e2565b8386141561166257600196505050505050506116e2565b8286141561167957600296505050505050506116e2565b8186141561169057600396505050505050506116e2565b808614156116a757600496505050505050506116e2565b6040517f08c379a00000000000000000000000000000000000000000000000000000000081526004016116d990612764565b60405180910390fd5b919050565b600080600060418451146116fa57600080fd5b6020840151915060408401519050606084015160001a92509193909250565b828054828255906000526020600020908101928215611755579160200282015b82811115611754578251825591602001919060010190611739565b5b5090506117629190611872565b5090565b828054611772906121a1565b90600052602060002090601f01602090048101928261179457600085556117db565b82601f106117ad57805160ff19168380011785556117db565b828001600101855582156117db579182015b828111156117da5782518255916020019190600101906117bf565b5b5090506117e89190611872565b5090565b8280546117f8906121a1565b90600052602060002090601f01602090048101928261181a5760008555611861565b82601f1061183357805160ff1916838001178555611861565b82800160010185558215611861579182015b82811115611860578251825591602001919060010190611845565b5b50905061186e9190611872565b5090565b5b8082111561188b576000816000905550600101611873565b5090565b6000604051905090565b600080fd5b600080fd5b6000819050919050565b6118b6816118a3565b81146118c157600080fd5b50565b6000813590506118d3816118ad565b92915050565b6000602082840312156118ef576118ee611899565b5b60006118fd848285016118c4565b91505092915050565b61190f816118a3565b82525050565b600060208201905061192a6000830184611906565b92915050565b600073ffffffffffffffffffffffffffffffffffffffff82169050919050565b600061195b82611930565b9050919050565b61196b81611950565b811461197657600080fd5b50565b60008135905061198881611962565b92915050565b6000602082840312156119a4576119a3611899565b5b60006119b284828501611979565b91505092915050565b6119c481611950565b82525050565b7f4e487b7100000000000000000000000000000000000000000000000000000000600052602160045260246000fd5b60038110611a0a57611a096119ca565b5b50565b6000819050611a1b826119f9565b919050565b6000611a2b82611a0d565b9050919050565b611a3b81611a20565b82525050565b6000604082019050611a5660008301856119bb565b611a636020830184611a32565b9392505050565b600081519050919050565b600082825260208201905092915050565b60005b83811015611aa4578082015181840152602081019050611a89565b83811115611ab3576000848401525b50505050565b6000601f19601f8301169050919050565b6000611ad582611a6a565b611adf8185611a75565b9350611aef818560208601611a86565b611af881611ab9565b840191505092915050565b6000606082019050611b186000830186611906565b8181036020830152611b2a8185611aca565b9050611b3960408301846119bb565b949350505050565b6000819050919050565b611b5481611b41565b8114611b5f57600080fd5b50565b600081359050611b7181611b4b565b92915050565b600080600060608486031215611b9057611b8f611899565b5b6000611b9e86828701611b62565b9350506020611baf868287016118c4565b9250506040611bc086828701611979565b9150509250925092565b60008115159050919050565b611bdf81611bca565b82525050565b6000602082019050611bfa6000830184611bd6565b92915050565b611c0981611950565b82525050565b611c1881611a20565b82525050565b600081519050919050565b600082825260208201905092915050565b6000819050602082019050919050565b611c53816118a3565b82525050565b6000611c658383611c4a565b60208301905092915050565b6000602082019050919050565b6000611c8982611c1e565b611c938185611c29565b9350611c9e83611c3a565b8060005b83811015611ccf578151611cb68882611c59565b9750611cc183611c71565b925050600181019050611ca2565b5085935050505092915050565b6000606083016000830151611cf46000860182611c00565b506020830151611d076020860182611c0f565b5060408301518482036040860152611d1f8282611c7e565b9150508091505092915050565b600081519050919050565b600082825260208201905092915050565b6000611d5382611d2c565b611d5d8185611d37565b9350611d6d818560208601611a86565b611d7681611ab9565b840191505092915050565b60058110611d9257611d916119ca565b5b50565b6000819050611da382611d81565b919050565b6000611db382611d95565b9050919050565b611dc381611da8565b82525050565b600060a082019050611dde6000830188611906565b8181036020830152611df08187611cdc565b90508181036040830152611e048186611cdc565b90508181036060830152611e188185611d48565b9050611e276080830184611dba565b9695505050505050565b600080fd5b600080fd5b7f4e487b7100000000000000000000000000000000000000000000000000000000600052604160045260246000fd5b611e7382611ab9565b810181811067ffffffffffffffff82111715611e9257611e91611e3b565b5b80604052505050565b6000611ea561188f565b9050611eb18282611e6a565b919050565b600067ffffffffffffffff821115611ed157611ed0611e3b565b5b611eda82611ab9565b9050602081019050919050565b82818337600083830152505050565b6000611f09611f0484611eb6565b611e9b565b905082815260208101848484011115611f2557611f24611e36565b5b611f30848285611ee7565b509392505050565b600082601f830112611f4d57611f4c611e31565b5b8135611f5d848260208601611ef6565b91505092915050565b60008060408385031215611f7d57611f7c611899565b5b6000611f8b85828601611979565b925050602083013567ffffffffffffffff811115611fac57611fab61189e565b5b611fb885828601611f38565b9150509250929050565b600067ffffffffffffffff821115611fdd57611fdc611e3b565b5b611fe682611ab9565b9050602081019050919050565b600061200661200184611fc2565b611e9b565b90508281526020810184848401111561202257612021611e36565b5b61202d848285611ee7565b509392505050565b600082601f83011261204a57612049611e31565b5b813561205a848260208601611ff3565b91505092915050565b600080600080600060a0868803121561207f5761207e611899565b5b600061208d88828901611979565b955050602061209e88828901611979565b945050604086013567ffffffffffffffff8111156120bf576120be61189e565b5b6120cb88828901611f38565b93505060606120dc888289016118c4565b925050608086013567ffffffffffffffff8111156120fd576120fc61189e565b5b61210988828901612035565b9150509295509295909350565b6000806040838503121561212d5761212c611899565b5b600083013567ffffffffffffffff81111561214b5761214a61189e565b5b61215785828601611f38565b925050602061216885828601611979565b9150509250929050565b7f4e487b7100000000000000000000000000000000000000000000000000000000600052602260045260246000fd5b600060028204905060018216806121b957607f821691505b602082108114156121cd576121cc612172565b5b50919050565b7f4e487b7100000000000000000000000000000000000000000000000000000000600052601160045260246000fd5b600061220d826118a3565b9150612218836118a3565b92508282101561222b5761222a6121d3565b5b828203905092915050565b600081905092915050565b600061224c82611d2c565b6122568185612236565b9350612266818560208601611a86565b80840191505092915050565b6000819050919050565b61228d61228882611b41565b612272565b82525050565b600061229f8285612241565b91506122ab828461227c565b6020820191508190509392505050565b6122c481611b41565b82525050565b600060ff82169050919050565b6122e0816122ca565b82525050565b60006080820190506122fb60008301876122bb565b61230860208301866122d7565b61231560408301856122bb565b61232260608301846122bb565b95945050505050565b600081905092915050565b600061234182611a6a565b61234b818561232b565b935061235b818560208601611a86565b80840191505092915050565b60006123738284612336565b915081905092915050565b7f4953535545520000000000000000000000000000000000000000000000000000600082015250565b60006123b460068361232b565b91506123bf8261237e565b600682019050919050565b60006123d5826123a7565b9150819050919050565b7f50524f5645520000000000000000000000000000000000000000000000000000600082015250565b600061241560068361232b565b9150612420826123df565b600682019050919050565b600061243682612408565b9150819050919050565b7f5645524946494552000000000000000000000000000000000000000000000000600082015250565b600061247660088361232b565b915061248182612440565b600882019050919050565b600061249782612469565b9150819050919050565b7f726563656976656420696e76616c696420656e74697479206d6f646500000000600082015250565b60006124d7601c83611a75565b91506124e2826124a1565b602082019050919050565b60006020820190508181036000830152612506816124ca565b9050919050565b7f4d414e5546414354555245440000000000000000000000000000000000000000600082015250565b6000612543600c8361232b565b915061254e8261250d565b600c82019050919050565b600061256482612536565b9150819050919050565b7f44454c49564552494e475f494e5445524e4154494f4e414c0000000000000000600082015250565b60006125a460188361232b565b91506125af8261256e565b601882019050919050565b60006125c582612597565b9150819050919050565b7f53544f5245440000000000000000000000000000000000000000000000000000600082015250565b600061260560068361232b565b9150612610826125cf565b600682019050919050565b6000612626826125f8565b9150819050919050565b7f44454c49564552494e475f4c4f43414c00000000000000000000000000000000600082015250565b600061266660108361232b565b915061267182612630565b601082019050919050565b600061268782612659565b9150819050919050565b7f44454c4956455245440000000000000000000000000000000000000000000000600082015250565b60006126c760098361232b565b91506126d282612691565b600982019050919050565b60006126e8826126ba565b9150819050919050565b7f726563656976656420696e76616c69642063657274696669636174652073746160008201527f7475730000000000000000000000000000000000000000000000000000000000602082015250565b600061274e602383611a75565b9150612759826126f2565b604082019050919050565b6000602082019050818103600083015261277d81612741565b905091905056fea26469706673582212207b835e6647a7d42d9b02e72be28d47fc288469d50d5735a638c0bf5fa160cf6064736f6c634300080b0033",
  "immutableReferences": {},
  "source": "// SPDX-License-Identifier: MIT\n\npragma solidity >=0.7.0 <0.9.0;\n\nlibrary CryptoSuite {\n    \n    function splitSignature(bytes memory sig) internal pure returns(uint8 v, bytes32 r, bytes32 s){\n        require(sig.length == 65);\n\n        assembly {\n            \n            // first 32 bytes\n            r := mload(add(sig, 32))\n\n            //next 32 bytes\n            s := mload(add(sig, 64))\n\n            //last 32 bytes\n            v := byte(0, mload(add(sig, 96)))\n        }\n\n        return (v, r, s);\n    }\n\n    function recoverSigner(bytes32 message, bytes memory sig) internal pure returns (address) {\n        (uint8 v, bytes32 r, bytes32 s) = splitSignature(sig);\n        bytes memory prefix = \"\\x19Ethereum Signed Message:\\n32\"; \n        bytes32 prefixHash = keccak256(abi.encodePacked(prefix, message));\n        return ecrecover(prefixHash, v, r, s);\n    }\n}\n\ncontract ColdChain {\n    enum Mode {ISSUER, PROVER, VERIFIER}\n\n    struct Entity {\n        address id;\n        Mode mode;\n        uint[] certificateIds;\n    }\n\n    enum Status {MANUFACTURED, DELIVERING_INTERNATIONAL, STORED, DELIVERING_LOCAL, DELIVERED}\n    \n    struct Certificate {\n        uint id;\n        Entity issuer;\n        Entity prover;\n        bytes signature;\n        Status status;\n    }\n\n    struct VaccineBatch {\n        uint id;\n        string brand;\n        address manufacturer;\n        uint[] certificateIds;\n    }\n\n    uint public constant MAX_CERTIFICATIONS = 2;\n\n    uint[] public certificateIds;\n    uint[] public vaccineBatchIds;\n\n    mapping(uint => VaccineBatch) public vaccinebatches;\n    mapping(uint => Certificate) public certificates;\n    mapping(address => Entity) public entities;\n\n    event AddEntity(address entityId, Mode entityMode);\n    event AddVaccineBatch(uint vaccineBatchId, address indexed manufacturer);\n    event IssueCertificate(address indexed issuer, address indexed prover, uint certificateId);\n\n    function addEntity(address _id, string memory _mode) public {\n        Mode mode = unmarshalMode(_mode);\n        uint[] memory _certificateIds = new uint[](MAX_CERTIFICATIONS);\n        Entity memory entity = Entity(_id, mode, _certificateIds);\n        entities[_id] = entity;\n        emit AddEntity(entity.id, entity.mode);\n\n    }\n\n    function unmarshalMode(string memory _mode) private pure returns(Mode mode) {\n        bytes32 encodedMode = keccak256(abi.encodePacked(_mode));\n        bytes32 encodedMode0 = keccak256(abi.encodePacked(\"ISSUER\"));\n        bytes32 encodedMode1 = keccak256(abi.encodePacked(\"PROVER\"));\n        bytes32 encodedMode2 = keccak256(abi.encodePacked(\"VERIFIER\"));\n\n        \n        if(encodedMode == encodedMode0) {\n            return Mode.ISSUER;\n        }\n\n        else if (encodedMode == encodedMode1) {\n            return Mode.PROVER;\n        }\n        else if (encodedMode == encodedMode2) {\n            return Mode.VERIFIER;\n        }\n\n        revert(\"received invalid entity mode\");\n    }\n\n    function unmarshalStatus(string memory _status) private pure returns (Status status) {\n        bytes32 encodedStatus = keccak256(abi.encodePacked(_status));\n        bytes32 encodedStatus0 = keccak256(abi.encodePacked(\"MANUFACTURED\"));\n        bytes32 encodedStatus1 = keccak256(abi.encodePacked(\"DELIVERING_INTERNATIONAL\"));\n        bytes32 encodedStatus2 = keccak256(abi.encodePacked(\"STORED\"));\n        bytes32 encodedStatus3 = keccak256(abi.encodePacked(\"DELIVERING_LOCAL\"));\n        bytes32 encodedStatus4 = keccak256(abi.encodePacked(\"DELIVERED\"));\n        \n        if(encodedStatus == encodedStatus0) {\n            return Status.MANUFACTURED;\n        }\n\n        else if (encodedStatus == encodedStatus1) {\n            return Status.DELIVERING_INTERNATIONAL;\n        }\n        else if (encodedStatus == encodedStatus2) {\n            return Status.STORED;\n        }\n        else if (encodedStatus == encodedStatus3) {\n            return Status.DELIVERING_LOCAL;\n        }\n        else if (encodedStatus == encodedStatus4) {\n            return Status.DELIVERED;\n        }\n\n        revert(\"received invalid certificate status\");\n    }\n\n    function addVaccineBatch(string memory brand, address manufacturer) public returns(uint) {\n        uint[] memory _certificateIds = new uint[](MAX_CERTIFICATIONS);\n        uint id = vaccineBatchIds.length;\n        VaccineBatch memory batch = VaccineBatch(id, brand, manufacturer, _certificateIds);\n        vaccinebatches[id] = batch;\n        vaccineBatchIds.push(id);\n\n        emit AddVaccineBatch(batch.id, batch.manufacturer);\n        return id;\n    }\n\n    function issueCertificate(address _issuer, address _prover, string memory _status,\n    uint vaccineBatchId, bytes memory signature) public returns (uint){\n        Entity memory issuer = entities[_issuer];\n        require(issuer.mode == Mode.ISSUER);\n\n        Entity memory prover = entities[_prover];\n        require(prover.mode == Mode.PROVER);\n\n        Status status = unmarshalStatus(_status);\n\n        uint id = certificateIds.length;\n        Certificate memory certificate = Certificate(id, issuer, prover, signature, status);\n \n        certificateIds.push(certificateIds.length);\n        certificates[certificateIds.length-1] = certificate;\n\n        emit IssueCertificate(_issuer, _prover, certificateIds.length-1);\n\n        return certificateIds.length-1; \n    }\n\n    function isMatchingSignature(bytes32 message, uint id, address issuer) public view returns (bool) {\n        Certificate memory cert = certificates[id];\n        require(cert.issuer.id == issuer);\n\n        address recoveredSigner = CryptoSuite.recoverSigner(message, cert.signature);\n\n        return recoveredSigner == cert.issuer.id;\n    }\n}",
  "sourcePath": "/home/taha/Personal/ColdChain/contracts/ColdChain.sol",
  "compiler": {
    "name": "solc",
    "version": "0.8.11+commit.d7f03943.Emscripten.clang"
  },
  "schemaVersion": "3.4.4",
  "updatedAt": "2022-01-29T13:09:01.623Z",
  "devdoc": {
    "kind": "dev",
    "methods": {},
    "version": 1
  },
  "userdoc": {
    "kind": "user",
    "methods": {},
    "version": 1
  }
}